{
  "contractName": "Auction",
  "abi": [
    {
      "inputs": [],
      "stateMutability": "nonpayable",
      "type": "constructor"
    },
    {
      "inputs": [],
      "name": "highestBid",
      "outputs": [
        {
          "internalType": "uint256",
          "name": "",
          "type": "uint256"
        }
      ],
      "stateMutability": "view",
      "type": "function",
      "constant": true
    },
    {
      "inputs": [],
      "name": "highestBidder",
      "outputs": [
        {
          "internalType": "address",
          "name": "",
          "type": "address"
        }
      ],
      "stateMutability": "view",
      "type": "function",
      "constant": true
    },
    {
      "inputs": [
        {
          "internalType": "address",
          "name": "",
          "type": "address"
        }
      ],
      "name": "userBalances",
      "outputs": [
        {
          "internalType": "uint256",
          "name": "",
          "type": "uint256"
        }
      ],
      "stateMutability": "view",
      "type": "function",
      "constant": true
    },
    {
      "stateMutability": "payable",
      "type": "receive",
      "payable": true
    },
    {
      "inputs": [],
      "name": "bid",
      "outputs": [],
      "stateMutability": "payable",
      "type": "function",
      "payable": true
    },
    {
      "inputs": [],
      "name": "withdraw",
      "outputs": [],
      "stateMutability": "payable",
      "type": "function",
      "payable": true
    },
    {
      "inputs": [
        {
          "internalType": "address",
          "name": "_addr",
          "type": "address"
        }
      ],
      "name": "getBidderBalance",
      "outputs": [
        {
          "internalType": "uint256",
          "name": "",
          "type": "uint256"
        }
      ],
      "stateMutability": "view",
      "type": "function",
      "constant": true
    },
    {
      "inputs": [],
      "name": "HighestBidderAddress",
      "outputs": [
        {
          "internalType": "address",
          "name": "",
          "type": "address"
        }
      ],
      "stateMutability": "view",
      "type": "function",
      "constant": true
    }
  ],
  "bytecode": "0x608060405234801561001057600080fd5b506000600181905550336000806101000a81548173ffffffffffffffffffffffffffffffffffffffff021916908373ffffffffffffffffffffffffffffffffffffffff16021790555061081a806100686000396000f3fe6080604052600436106100745760003560e01c806391f901571161004e57806391f90157146100d15780639bb7307c146100fc578063ac2bd07e14610139578063d57bde79146101645761007b565b80631998aeef1461008057806326224c641461008a5780633ccfd60b146100c75761007b565b3661007b57005b600080fd5b61008861018f565b005b34801561009657600080fd5b506100b160048036038101906100ac9190610507565b610260565b6040516100be9190610675565b60405180910390f35b6100cf610278565b005b3480156100dd57600080fd5b506100e6610456565b6040516100f391906105da565b60405180910390f35b34801561010857600080fd5b50610123600480360381019061011e9190610507565b61047a565b6040516101309190610675565b60405180910390f35b34801561014557600080fd5b5061014e6104c3565b60405161015b91906105da565b60405180910390f35b34801561017057600080fd5b506101796104ec565b6040516101869190610675565b60405180910390f35b60015434116101d3576040517f08c379a00000000000000000000000000000000000000000000000000000000081526004016101ca90610655565b60405180910390fd5b34600260003373ffffffffffffffffffffffffffffffffffffffff1673ffffffffffffffffffffffffffffffffffffffff1681526020019081526020016000208190555034600181905550336000806101000a81548173ffffffffffffffffffffffffffffffffffffffff021916908373ffffffffffffffffffffffffffffffffffffffff160217905550565b60026020528060005260406000206000915090505481565b6000600260003373ffffffffffffffffffffffffffffffffffffffff1673ffffffffffffffffffffffffffffffffffffffff16815260200190815260200160002054905060008054906101000a900473ffffffffffffffffffffffffffffffffffffffff1673ffffffffffffffffffffffffffffffffffffffff163373ffffffffffffffffffffffffffffffffffffffff16141561034b576040517f08c379a000000000000000000000000000000000000000000000000000000000815260040161034290610615565b60405180910390fd5b600081111561045357600154811415610399576040517f08c379a000000000000000000000000000000000000000000000000000000000815260040161039090610635565b60405180910390fd5b3373ffffffffffffffffffffffffffffffffffffffff166108fc829081150290604051600060405180830381858888f1935050505061040d576040517f08c379a0000000000000000000000000000000000000000000000000000000008152600401610404906105f5565b60405180910390fd5b6000600260003373ffffffffffffffffffffffffffffffffffffffff1673ffffffffffffffffffffffffffffffffffffffff168152602001908152602001600020819055505b50565b60008054906101000a900473ffffffffffffffffffffffffffffffffffffffff1681565b6000600260008373ffffffffffffffffffffffffffffffffffffffff1673ffffffffffffffffffffffffffffffffffffffff168152602001908152602001600020549050919050565b60008060009054906101000a900473ffffffffffffffffffffffffffffffffffffffff16905090565b60015481565b600081359050610501816107cd565b92915050565b60006020828403121561051957600080fd5b6000610527848285016104f2565b91505092915050565b610539816106a1565b82525050565b600061054c602083610690565b9150610557826106dd565b602082019050919050565b600061056f602483610690565b915061057a82610706565b604082019050919050565b6000610592602583610690565b915061059d82610755565b604082019050919050565b60006105b5601e83610690565b91506105c0826107a4565b602082019050919050565b6105d4816106d3565b82525050565b60006020820190506105ef6000830184610530565b92915050565b6000602082019050818103600083015261060e8161053f565b9050919050565b6000602082019050818103600083015261062e81610562565b9050919050565b6000602082019050818103600083015261064e81610585565b9050919050565b6000602082019050818103600083015261066e816105a8565b9050919050565b600060208201905061068a60008301846105cb565b92915050565b600082825260208201905092915050565b60006106ac826106b3565b9050919050565b600073ffffffffffffffffffffffffffffffffffffffff82169050919050565b6000819050919050565b7f436f756c64206e6f742073656e6420616d6f756e7420746f206269646465722e600082015250565b7f5468652068696768657374206269646465722063616e206e6f7420776974686460008201527f7261772e00000000000000000000000000000000000000000000000000000000602082015250565b7f596f752063616e206e6f7420776974686472617720746865206869676865737460008201527f206269642e000000000000000000000000000000000000000000000000000000602082015250565b7f486967686573742062696464657220616c7265616479206578697374732e0000600082015250565b6107d6816106a1565b81146107e157600080fd5b5056fea26469706673582212205b91eafcaf6f02a74ce607da44d3de429b086e04f0bf8a949600952a340d653064736f6c63430008040033",
  "immutableReferences": {},
  "source": "// SPDX-License-Identifier: GPL-3.0\n\npragma solidity >=0.5.0 <0.9.0;\n\ncontract Auction {\n    address public highestBidder;\n    uint public highestBid;\n    mapping(address => uint) public userBalances;\n    \n    constructor() {\n        highestBid = 0;\n        highestBidder = msg.sender;\n    }\n    \n    function bid() public payable {\n        require(msg.value > highestBid, \"Highest bidder already exists.\");\n            userBalances[msg.sender] = msg.value;\n            highestBid = msg.value;\n            highestBidder = msg.sender;\n    }\n    \n    function withdraw() public payable{\n        uint amount = userBalances[msg.sender];\n        require(msg.sender != highestBidder, \"The highest bidder can not withdraw.\");\n        if(amount > 0) {\n\t    require(amount != highestBid, \"You can not withdraw the highest bid.\");\n            require(payable(msg.sender).send(amount), \"Could not send amount to bidder.\");\n            userBalances[msg.sender] = 0;\n        }\n    }\n    \n    function getBidderBalance(address _addr) public view returns(uint) {\n        return(userBalances[_addr]);\n    }\n    \n    function HighestBidderAddress() public view returns(address) {\n        return(highestBidder);\n    }\n    \n    receive() external payable {}\n}\n",
  "sourcePath": "/home/alkisti/dapp/contracts/Auction.sol",
  "compiler": {
    "name": "solc",
    "version": "0.8.4+commit.c7e474f2.Emscripten.clang"
  },
  "schemaVersion": "3.4.1",
  "updatedAt": "2021-06-01T08:06:59.795Z",
  "networkType": "ethereum",
  "devdoc": {
    "kind": "dev",
    "methods": {},
    "version": 1
  },
  "userdoc": {
    "kind": "user",
    "methods": {},
    "version": 1
  }
}